BL51 BANKED LINKER/LOCATER V6.22                                                        07/07/2014  11:32:17  PAGE 1


BL51 BANKED LINKER/LOCATER V6.22, INVOKED BY:
C:\KEIL\C51\BIN\BL51.EXE switch1.obj TO switch1


MEMORY MODEL: SMALL


INPUT MODULES INCLUDED:
  switch1.obj (SWITCH1)
  C:\KEIL\C51\LIB\C51S.LIB (?C_STARTUP)


LINK MAP OF MODULE:  switch1 (SWITCH1)


            TYPE    BASE      LENGTH    RELOCATION   SEGMENT NAME
            -----------------------------------------------------

            * * * * * * *   D A T A   M E M O R Y   * * * * * * *
            REG     0000H     0008H     ABSOLUTE     "REG BANK 0"
            IDATA   0008H     0001H     UNIT         ?STACK

            * * * * * * *   C O D E   M E M O R Y   * * * * * * *
            CODE    0000H     0003H     ABSOLUTE     
                    0003H     07FDH                  *** GAP ***
            CODE    0800H     0020H     UNIT         ?PR?_DELAY?SWITCH1
            CODE    0820H     0010H     UNIT         ?PR?MAIN?SWITCH1
            CODE    0830H     000CH     UNIT         ?C_C51STARTUP



OVERLAY MAP OF MODULE:   switch1 (SWITCH1)


SEGMENT
  +--> CALLED SEGMENT
---------------------
?C_C51STARTUP
  +--> ?PR?MAIN?SWITCH1

?PR?MAIN?SWITCH1
  +--> ?PR?_DELAY?SWITCH1



SYMBOL TABLE OF MODULE:  switch1 (SWITCH1)

  VALUE           TYPE          NAME
  ----------------------------------

  -------         MODULE        SWITCH1
  C:0000H         SYMBOL        _ICE_DUMMY_
  D:00A0H         PUBLIC        P2
  C:0800H         PUBLIC        _delay
  C:0820H         PUBLIC        main
  -------         PROC          _DELAY
  D:0006H         SYMBOL        x
  -------         DO            
BL51 BANKED LINKER/LOCATER V6.22                                                      07/07/2014  11:32:17  PAGE 2


  D:0004H         SYMBOL        i
  D:0002H         SYMBOL        j
  -------         ENDDO         
  C:0800H         LINE#         11
  C:0800H         LINE#         12
  C:0800H         LINE#         14
  C:080AH         LINE#         15
  C:081FH         LINE#         16
  -------         ENDPROC       _DELAY
  -------         PROC          MAIN
  C:0820H         LINE#         2
  C:0820H         LINE#         3
  C:0820H         LINE#         4
  C:0823H         LINE#         5
  C:082AH         LINE#         6
  C:082DH         LINE#         7
  -------         ENDPROC       MAIN
  -------         ENDMOD        SWITCH1

******************************************************************************
* RESTRICTED VERSION WITH 0800H BYTE CODE SIZE LIMIT; USED: 0030H BYTE ( 2%) *
******************************************************************************

Program Size: data=9.0 xdata=0 code=63
LINK/LOCATE RUN COMPLETE.  0 WARNING(S),  0 ERROR(S)
