BL51 BANKED LINKER/LOCATER V6.22                                                        07/16/2014  11:44:39  PAGE 1


BL51 BANKED LINKER/LOCATER V6.22, INVOKED BY:
C:\KEIL\C51\BIN\BL51.EXE multiplexing7Seg.obj TO multiplexing7Seg


MEMORY MODEL: SMALL


INPUT MODULES INCLUDED:
  multiplexing7Seg.obj (MULTIPLEXING7SEG)
  C:\KEIL\C51\LIB\C51S.LIB (?C_STARTUP)
  C:\KEIL\C51\LIB\C51S.LIB (?C?COPY)
  C:\KEIL\C51\LIB\C51S.LIB (?C?ULDIV)
  C:\KEIL\C51\LIB\C51S.LIB (?C?ULCMP)


LINK MAP OF MODULE:  multiplexing7Seg (MULTIPLEXING7SEG)


            TYPE    BASE      LENGTH    RELOCATION   SEGMENT NAME
            -----------------------------------------------------

            * * * * * * *   D A T A   M E M O R Y   * * * * * * *
            REG     0000H     0008H     ABSOLUTE     "REG BANK 0"
            DATA    0008H     0016H     UNIT         _DATA_GROUP_
            DATA    001EH     0010H     UNIT         ?DT?_DISPLAY?MULTIPLEXING7SEG
            IDATA   002EH     0001H     UNIT         ?STACK

            * * * * * * *   C O D E   M E M O R Y   * * * * * * *
            CODE    0000H     0003H     ABSOLUTE     
                    0003H     07FDH                  *** GAP ***
            CODE    0800H     01D5H     UNIT         ?C?LIB_CODE
            CODE    09D5H     0105H     UNIT         ?PR?_DISPLAY?MULTIPLEXING7SEG
            CODE    0ADAH     005DH     UNIT         ?PR?MAIN?MULTIPLEXING7SEG
            CODE    0B37H     002CH     UNIT         ?PR?_DELAY?MULTIPLEXING7SEG
            CODE    0B63H     0016H     UNIT         ?PR?_CMD?MULTIPLEXING7SEG
            CODE    0B79H     0014H     UNIT         ?CO?MULTIPLEXING7SEG
            CODE    0B8DH     000CH     UNIT         ?C_C51STARTUP



OVERLAY MAP OF MODULE:   multiplexing7Seg (MULTIPLEXING7SEG)


SEGMENT                                 DATA_GROUP 
  +--> CALLED SEGMENT                 START    LENGTH
-----------------------------------------------------
?C_C51STARTUP                         -----    -----
  +--> ?PR?MAIN?MULTIPLEXING7SEG

?PR?MAIN?MULTIPLEXING7SEG             0008H    0016H
  +--> ?CO?MULTIPLEXING7SEG
  +--> ?PR?_DELAY?MULTIPLEXING7SEG



SYMBOL TABLE OF MODULE:  multiplexing7Seg (MULTIPLEXING7SEG)

  VALUE           TYPE          NAME
BL51 BANKED LINKER/LOCATER V6.22                                                      07/16/2014  11:44:39  PAGE 2


  ----------------------------------

  -------         MODULE        MULTIPLEXING7SEG
  C:0000H         SYMBOL        _ICE_DUMMY_
  D:0090H         PUBLIC        P1
  D:00A0H         PUBLIC        P2
  D:00B0H         PUBLIC        P3
  C:0B3FH         PUBLIC        _delay
  B:0090H.0       PUBLIC        p1
  B:0090H.1       PUBLIC        p2
  C:0ADAH         PUBLIC        main
  C:0B63H         PUBLIC        _cmd
  D:0089H         PUBLIC        TMOD
  C:0B79H         SYMBOL        _?ix1000
  C:0B83H         SYMBOL        _?ix1001
  B:0088H.7       PUBLIC        TF1
  D:008DH         PUBLIC        TH1
  D:008BH         PUBLIC        TL1
  B:00B0H.7       PUBLIC        en
  B:0088H.6       PUBLIC        TR1
  B:00B0H.5       PUBLIC        rs
  B:00B0H.6       PUBLIC        rw
  C:09D5H         PUBLIC        _display
  -------         PROC          L?0025
  -------         ENDPROC       L?0025
  -------         PROC          _DELAY
  D:0006H         SYMBOL        n
  -------         DO            
  D:0004H         SYMBOL        i
  -------         ENDDO         
  C:0B3FH         LINE#         90
  C:0B3FH         LINE#         91
  C:0B3FH         LINE#         93
  C:0B42H         LINE#         94
  C:0B4CH         LINE#         95
  C:0B4CH         LINE#         96
  C:0B4FH         LINE#         97
  C:0B52H         LINE#         98
  C:0B54H         LINE#         99
  C:0B57H         LINE#         100
  C:0B59H         LINE#         101
  C:0B5BH         LINE#         102
  C:0B62H         LINE#         103
  -------         ENDPROC       _DELAY
  -------         PROC          _CMD
  D:0007H         SYMBOL        value
  D:0004H         SYMBOL        z
  C:0B63H         LINE#         109
  C:0B63H         LINE#         110
  C:0B63H         LINE#         111
  C:0B65H         LINE#         112
  C:0B6BH         LINE#         113
  C:0B6DH         LINE#         114
  C:0B6FH         LINE#         115
  C:0B76H         LINE#         116
  C:0B78H         LINE#         117
  -------         ENDPROC       _CMD
BL51 BANKED LINKER/LOCATER V6.22                                                      07/16/2014  11:44:39  PAGE 3


  -------         PROC          _DISPLAY
  D:001EH         SYMBOL        b
  -------         DO            
  D:0022H         SYMBOL        i
  D:0026H         SYMBOL        store
  D:002AH         SYMBOL        c
  -------         ENDDO         
  C:09D5H         LINE#         118
  C:09DDH         LINE#         119
  C:09DDH         LINE#         120
  C:09EEH         LINE#         121
  C:09F5H         LINE#         122
  C:0A08H         LINE#         123
  C:0A08H         LINE#         124
  C:0A10H         LINE#         125
  C:0A10H         LINE#         126
  C:0A10H         LINE#         127
  C:0A10H         LINE#         128
  C:0A23H         LINE#         129
  C:0A23H         LINE#         130
  C:0A44H         LINE#         131
  C:0A59H         LINE#         132
  C:0A72H         LINE#         133
  C:0A74H         LINE#         134
  C:0A7FH         LINE#         135
  C:0A92H         LINE#         136
  C:0A92H         LINE#         137
  C:0AB3H         LINE#         138
  C:0ABEH         LINE#         139
  C:0AD7H         LINE#         140
  C:0AD9H         LINE#         141
  C:0AD9H         LINE#         142
  C:0AD9H         LINE#         143
  -------         ENDPROC       _DISPLAY
  -------         PROC          MAIN
  -------         DO            
  D:0002H         SYMBOL        i
  D:0082H         SYMBOL        j
  D:0008H         SYMBOL        z
  D:000AH         SYMBOL        num1
  D:0014H         SYMBOL        num2
  -------         ENDDO         
  C:0ADAH         LINE#         4
  C:0ADAH         LINE#         5
  C:0ADAH         LINE#         6
  C:0AE0H         LINE#         7
  C:0AF3H         LINE#         8
  C:0B06H         LINE#         9
  C:0B09H         LINE#         10
  C:0B09H         LINE#         11
  C:0B0CH         LINE#         12
  C:0B0CH         LINE#         13
  C:0B0EH         LINE#         14
  C:0B10H         LINE#         15
  C:0B13H         LINE#         16
  C:0B16H         LINE#         17
  C:0B18H         LINE#         18
BL51 BANKED LINKER/LOCATER V6.22                                                      07/16/2014  11:44:39  PAGE 4


  C:0B1AH         LINE#         19
  C:0B1FH         LINE#         20
  C:0B22H         LINE#         21
  C:0B2BH         LINE#         22
  C:0B36H         LINE#         23
  -------         ENDPROC       MAIN
  -------         ENDMOD        MULTIPLEXING7SEG

  -------         MODULE        ?C?COPY
  C:08D0H         PUBLIC        ?C?COPY
  -------         ENDMOD        ?C?COPY

  -------         MODULE        ?C?ULDIV
  C:0932H         PUBLIC        ?C?ULDIV
  -------         ENDMOD        ?C?ULDIV

  -------         MODULE        ?C?ULCMP
  C:09C4H         PUBLIC        ?C?ULCMP
  -------         ENDMOD        ?C?ULCMP

*** WARNING L16: UNCALLED SEGMENT, IGNORED FOR OVERLAY PROCESS
    SEGMENT: ?PR?_DISPLAY?MULTIPLEXING7SEG

******************************************************************************
* RESTRICTED VERSION WITH 0800H BYTE CODE SIZE LIMIT; USED: 01B8H BYTE (21%) *
******************************************************************************

Program Size: data=47.0 xdata=0 code=924
LINK/LOCATE RUN COMPLETE.  1 WARNING(S),  0 ERROR(S)
